{
  "contractName": "Auction",
  "abi": [
    {
      "inputs": [],
      "stateMutability": "nonpayable",
      "type": "constructor"
    },
    {
      "anonymous": false,
      "inputs": [],
      "name": "AuctionCancelled",
      "type": "event"
    },
    {
      "anonymous": false,
      "inputs": [
        {
          "indexed": false,
          "internalType": "address",
          "name": "winner",
          "type": "address"
        },
        {
          "indexed": false,
          "internalType": "uint256",
          "name": "amount",
          "type": "uint256"
        }
      ],
      "name": "AuctionEnded",
      "type": "event"
    },
    {
      "anonymous": false,
      "inputs": [
        {
          "indexed": false,
          "internalType": "string",
          "name": "itemName",
          "type": "string"
        },
        {
          "indexed": false,
          "internalType": "uint256",
          "name": "minBid",
          "type": "uint256"
        },
        {
          "indexed": false,
          "internalType": "uint256",
          "name": "endTime",
          "type": "uint256"
        }
      ],
      "name": "AuctionStarted",
      "type": "event"
    },
    {
      "anonymous": false,
      "inputs": [
        {
          "indexed": true,
          "internalType": "address",
          "name": "bidder",
          "type": "address"
        },
        {
          "indexed": false,
          "internalType": "uint256",
          "name": "amount",
          "type": "uint256"
        }
      ],
      "name": "NewBid",
      "type": "event"
    },
    {
      "stateMutability": "payable",
      "type": "fallback",
      "payable": true
    },
    {
      "inputs": [],
      "name": "active",
      "outputs": [
        {
          "internalType": "bool",
          "name": "",
          "type": "bool"
        }
      ],
      "stateMutability": "view",
      "type": "function",
      "constant": true
    },
    {
      "inputs": [
        {
          "internalType": "address",
          "name": "",
          "type": "address"
        }
      ],
      "name": "bids",
      "outputs": [
        {
          "internalType": "uint256",
          "name": "",
          "type": "uint256"
        }
      ],
      "stateMutability": "view",
      "type": "function",
      "constant": true
    },
    {
      "inputs": [],
      "name": "endTime",
      "outputs": [
        {
          "internalType": "uint256",
          "name": "",
          "type": "uint256"
        }
      ],
      "stateMutability": "view",
      "type": "function",
      "constant": true
    },
    {
      "inputs": [],
      "name": "highestBid",
      "outputs": [
        {
          "internalType": "uint256",
          "name": "",
          "type": "uint256"
        }
      ],
      "stateMutability": "view",
      "type": "function",
      "constant": true
    },
    {
      "inputs": [],
      "name": "highestBidder",
      "outputs": [
        {
          "internalType": "address",
          "name": "",
          "type": "address"
        }
      ],
      "stateMutability": "view",
      "type": "function",
      "constant": true
    },
    {
      "inputs": [],
      "name": "itemName",
      "outputs": [
        {
          "internalType": "string",
          "name": "",
          "type": "string"
        }
      ],
      "stateMutability": "view",
      "type": "function",
      "constant": true
    },
    {
      "inputs": [],
      "name": "minBid",
      "outputs": [
        {
          "internalType": "uint256",
          "name": "",
          "type": "uint256"
        }
      ],
      "stateMutability": "view",
      "type": "function",
      "constant": true
    },
    {
      "inputs": [],
      "name": "owner",
      "outputs": [
        {
          "internalType": "address payable",
          "name": "",
          "type": "address"
        }
      ],
      "stateMutability": "view",
      "type": "function",
      "constant": true
    },
    {
      "stateMutability": "payable",
      "type": "receive",
      "payable": true
    },
    {
      "inputs": [
        {
          "internalType": "string",
          "name": "_itemName",
          "type": "string"
        },
        {
          "internalType": "uint256",
          "name": "_minBid",
          "type": "uint256"
        },
        {
          "internalType": "uint256",
          "name": "_duration",
          "type": "uint256"
        }
      ],
      "name": "startAuction",
      "outputs": [],
      "stateMutability": "nonpayable",
      "type": "function"
    },
    {
      "inputs": [],
      "name": "placeBid",
      "outputs": [],
      "stateMutability": "payable",
      "type": "function",
      "payable": true
    },
    {
      "inputs": [],
      "name": "endAuction",
      "outputs": [],
      "stateMutability": "nonpayable",
      "type": "function"
    },
    {
      "inputs": [],
      "name": "cancelAuction",
      "outputs": [],
      "stateMutability": "nonpayable",
      "type": "function"
    }
  ],
  "bytecode": "0x608060405234801561001057600080fd5b50336000806101000a81548173ffffffffffffffffffffffffffffffffffffffff021916908373ffffffffffffffffffffffffffffffffffffffff160217905550611ca2806100606000396000f3fe6080604052600436106100ab5760003560e01c80638da5cb5b116100645780638da5cb5b146102385780638fa8b7901461026357806391f901571461027a578063d57bde79146102a5578063ecfc7ecc146102d0578063fe67a54b146102da576100eb565b806302fb0c5e146101265780632ac63f99146101515780633197cbb61461017a5780633e109a19146101a557806340401fea146101d057806362ea82db146101fb576100eb565b366100eb576040517f08c379a00000000000000000000000000000000000000000000000000000000081526004016100e2906117e1565b60405180910390fd5b6040517f08c379a000000000000000000000000000000000000000000000000000000000815260040161011d90611841565b60405180910390fd5b34801561013257600080fd5b5061013b6102f1565b6040516101489190611746565b60405180910390f35b34801561015d57600080fd5b5061017860048036038101906101739190611250565b610304565b005b34801561018657600080fd5b5061018f6105e8565b60405161019c9190611921565b60405180910390f35b3480156101b157600080fd5b506101ba6105ee565b6040516101c79190611921565b60405180910390f35b3480156101dc57600080fd5b506101e56105f4565b6040516101f29190611761565b60405180910390f35b34801561020757600080fd5b50610222600480360381019061021d9190611227565b610682565b60405161022f9190611921565b60405180910390f35b34801561024457600080fd5b5061024d61069a565b60405161025a9190611702565b60405180910390f35b34801561026f57600080fd5b506102786106be565b005b34801561028657600080fd5b5061028f610a44565b60405161029c91906116e7565b60405180910390f35b3480156102b157600080fd5b506102ba610a6a565b6040516102c79190611921565b60405180910390f35b6102d8610a70565b005b3480156102e657600080fd5b506102ef610dbc565b005b600460009054906101000a900460ff1681565b60008054906101000a900473ffffffffffffffffffffffffffffffffffffffff1673ffffffffffffffffffffffffffffffffffffffff163373ffffffffffffffffffffffffffffffffffffffff1614610392576040517f08c379a000000000000000000000000000000000000000000000000000000000815260040161038990611901565b60405180910390fd5b600460009054906101000a900460ff16156103e2576040517f08c379a00000000000000000000000000000000000000000000000000000000081526004016103d990611801565b60405180910390fd5b60004714610425576040517f08c379a000000000000000000000000000000000000000000000000000000000815260040161041c90611861565b60405180910390fd5b826001908051906020019061043b9291906110d1565b508160028190555062015180816104529190611a2f565b4261045d91906119d9565b6003819055506001600460006101000a81548160ff0219169083151502179055506000600460016101000a81548173ffffffffffffffffffffffffffffffffffffffff021916908373ffffffffffffffffffffffffffffffffffffffff160217905550600060058190555060005b6007805490508110156105945760006006600060078481548110610518577f4e487b7100000000000000000000000000000000000000000000000000000000600052603260045260246000fd5b9060005260206000200160009054906101000a900473ffffffffffffffffffffffffffffffffffffffff1673ffffffffffffffffffffffffffffffffffffffff1673ffffffffffffffffffffffffffffffffffffffff16815260200190815260200160002081905550808061058c90611b57565b9150506104cb565b50600760006105a39190611157565b7faeeb4d2ec3a638905a8bd63e9e6e884d8048f914acf3289c675bf5f9b17e0fbc60016002546003546040516105db93929190611783565b60405180910390a1505050565b60035481565b60025481565b6001805461060190611b25565b80601f016020809104026020016040519081016040528092919081815260200182805461062d90611b25565b801561067a5780601f1061064f5761010080835404028352916020019161067a565b820191906000526020600020905b81548152906001019060200180831161065d57829003601f168201915b505050505081565b60066020528060005260406000206000915090505481565b60008054906101000a900473ffffffffffffffffffffffffffffffffffffffff1681565b60008054906101000a900473ffffffffffffffffffffffffffffffffffffffff1673ffffffffffffffffffffffffffffffffffffffff163373ffffffffffffffffffffffffffffffffffffffff161461074c576040517f08c379a000000000000000000000000000000000000000000000000000000000815260040161074390611901565b60405180910390fd5b600460009054906101000a900460ff1661079b576040517f08c379a000000000000000000000000000000000000000000000000000000000815260040161079290611881565b60405180910390fd5b6000600460006101000a81548160ff02191690831515021790555060005b6007805490508110156109bd57600060078281548110610802577f4e487b7100000000000000000000000000000000000000000000000000000000600052603260045260246000fd5b9060005260206000200160009054906101000a900473ffffffffffffffffffffffffffffffffffffffff1690506000600660008373ffffffffffffffffffffffffffffffffffffffff1673ffffffffffffffffffffffffffffffffffffffff1681526020019081526020016000205411156109a95760008173ffffffffffffffffffffffffffffffffffffffff16600660008473ffffffffffffffffffffffffffffffffffffffff1673ffffffffffffffffffffffffffffffffffffffff168152602001908152602001600020546040516108dc906116d2565b60006040518083038185875af1925050503d8060008114610919576040519150601f19603f3d011682016040523d82523d6000602084013e61091e565b606091505b5050905080610962576040517f08c379a0000000000000000000000000000000000000000000000000000000008152600401610959906118a1565b60405180910390fd5b6000600660008473ffffffffffffffffffffffffffffffffffffffff1673ffffffffffffffffffffffffffffffffffffffff16815260200190815260200160002081905550505b5080806109b590611b57565b9150506107b9565b506000600460016101000a81548173ffffffffffffffffffffffffffffffffffffffff021916908373ffffffffffffffffffffffffffffffffffffffff160217905550600060058190555060076000610a169190611157565b7fa5fb31e47bd1eca58bf14a3312d5e6aeafdc4ee787c8ed348c15c2b092324d9360405160405180910390a1565b600460019054906101000a900473ffffffffffffffffffffffffffffffffffffffff1681565b60055481565b600460009054906101000a900460ff16610abf576040517f08c379a0000000000000000000000000000000000000000000000000000000008152600401610ab690611881565b60405180910390fd5b6003544210610b03576040517f08c379a0000000000000000000000000000000000000000000000000000000008152600401610afa906118c1565b60405180910390fd5b60055434118015610b1657506002543410155b610b55576040517f08c379a0000000000000000000000000000000000000000000000000000000008152600401610b4c906117c1565b60405180910390fd5b600073ffffffffffffffffffffffffffffffffffffffff16600460019054906101000a900473ffffffffffffffffffffffffffffffffffffffff1673ffffffffffffffffffffffffffffffffffffffff1614610c7d576000600460019054906101000a900473ffffffffffffffffffffffffffffffffffffffff1673ffffffffffffffffffffffffffffffffffffffff16600554604051610bf5906116d2565b60006040518083038185875af1925050503d8060008114610c32576040519150601f19603f3d011682016040523d82523d6000602084013e610c37565b606091505b5050905080610c7b576040517f08c379a0000000000000000000000000000000000000000000000000000000008152600401610c72906118a1565b60405180910390fd5b505b33600460016101000a81548173ffffffffffffffffffffffffffffffffffffffff021916908373ffffffffffffffffffffffffffffffffffffffff1602179055503460058190555034600660003373ffffffffffffffffffffffffffffffffffffffff1673ffffffffffffffffffffffffffffffffffffffff168152602001908152602001600020819055506007339080600181540180825580915050600190039060005260206000200160009091909190916101000a81548173ffffffffffffffffffffffffffffffffffffffff021916908373ffffffffffffffffffffffffffffffffffffffff1602179055503373ffffffffffffffffffffffffffffffffffffffff167fdd0b6c6a77960e2066c96171b4d7ac9e8b4c184011f38544afa36a5bb63ec59f34604051610db29190611921565b60405180910390a2565b60008054906101000a900473ffffffffffffffffffffffffffffffffffffffff1673ffffffffffffffffffffffffffffffffffffffff163373ffffffffffffffffffffffffffffffffffffffff1614610e4a576040517f08c379a0000000000000000000000000000000000000000000000000000000008152600401610e4190611901565b60405180910390fd5b600460009054906101000a900460ff16610e99576040517f08c379a0000000000000000000000000000000000000000000000000000000008152600401610e9090611881565b60405180910390fd5b6000600460006101000a81548160ff021916908315150217905550600073ffffffffffffffffffffffffffffffffffffffff16600460019054906101000a900473ffffffffffffffffffffffffffffffffffffffff1673ffffffffffffffffffffffffffffffffffffffff16146110cf576000600554905080471015610f54576040517f08c379a0000000000000000000000000000000000000000000000000000000008152600401610f4b906118e1565b60405180910390fd5b6000600460019054906101000a900473ffffffffffffffffffffffffffffffffffffffff16905060006005819055506000600460016101000a81548173ffffffffffffffffffffffffffffffffffffffff021916908373ffffffffffffffffffffffffffffffffffffffff16021790555060008060009054906101000a900473ffffffffffffffffffffffffffffffffffffffff1673ffffffffffffffffffffffffffffffffffffffff168360405161100c906116d2565b60006040518083038185875af1925050503d8060008114611049576040519150601f19603f3d011682016040523d82523d6000602084013e61104e565b606091505b5050905080611092576040517f08c379a000000000000000000000000000000000000000000000000000000000815260040161108990611821565b60405180910390fd5b7fdaec4582d5d9595688c8c98545fdd1c696d41c6aeaeb636737e84ed2f5c00eda82846040516110c392919061171d565b60405180910390a15050505b565b8280546110dd90611b25565b90600052602060002090601f0160209004810192826110ff5760008555611146565b82601f1061111857805160ff1916838001178555611146565b82800160010185558215611146579182015b8281111561114557825182559160200191906001019061112a565b5b5090506111539190611178565b5090565b50805460008255906000526020600020908101906111759190611178565b50565b5b80821115611191576000816000905550600101611179565b5090565b60006111a86111a38461196d565b61193c565b9050828152602081018484840111156111c057600080fd5b6111cb848285611ae3565b509392505050565b6000813590506111e281611c3e565b92915050565b600082601f8301126111f957600080fd5b8135611209848260208601611195565b91505092915050565b60008135905061122181611c55565b92915050565b60006020828403121561123957600080fd5b6000611247848285016111d3565b91505092915050565b60008060006060848603121561126557600080fd5b600084013567ffffffffffffffff81111561127f57600080fd5b61128b868287016111e8565b935050602061129c86828701611212565b92505060406112ad86828701611212565b9150509250925092565b6112c081611a9b565b82525050565b6112cf81611a89565b82525050565b6112de81611aad565b82525050565b60006112ef826119b2565b6112f981856119c8565b9350611309818560208601611af2565b61131281611c2d565b840191505092915050565b6000815461132a81611b25565b61133481866119c8565b9450600182166000811461134f576001811461136157611394565b60ff1983168652602086019350611394565b61136a8561199d565b60005b8381101561138c5781548189015260018201915060208101905061136d565b808801955050505b50505092915050565b60006113aa600b836119c8565b91507f42696420746f6f206c6f770000000000000000000000000000000000000000006000830152602082019050919050565b60006113ea6032836119c8565b91507f5468697320636f6e747261637420646f6573206e6f742061636365707420646960008301527f7265637420455448207061796d656e74732100000000000000000000000000006020830152604082019050919050565b6000611450601d836119c8565b91507f46696e6973682063757272656e742061756374696f6e206669727374210000006000830152602082019050919050565b60006114906013836119c8565b91507f455448205472616e73666572206661696c6564000000000000000000000000006000830152602082019050919050565b60006114d06023836119c8565b91507f46616c6c6261636b3a20455448207472616e73666572206e6f7420616c6c6f7760008301527f65642100000000000000000000000000000000000000000000000000000000006020830152604082019050919050565b6000611536601d836119c8565b91507f436f6e74726163742073686f756c64206e6f7420686f6c6420455448210000006000830152602082019050919050565b60006115766011836119c8565b91507f4e6f206163746976652061756374696f6e0000000000000000000000000000006000830152602082019050919050565b60006115b6600d836119c8565b91507f526566756e64206661696c6564000000000000000000000000000000000000006000830152602082019050919050565b60006115f66000836119bd565b9150600082019050919050565b6000611610600d836119c8565b91507f41756374696f6e20656e646564000000000000000000000000000000000000006000830152602082019050919050565b6000611650601d836119c8565b91507f496e73756666696369656e7420636f6e74726163742062616c616e63650000006000830152602082019050919050565b60006116906018836119c8565b91507f4f6e6c79206f776e65722063616e2063616c6c207468697300000000000000006000830152602082019050919050565b6116cc81611ad9565b82525050565b60006116dd826115e9565b9150819050919050565b60006020820190506116fc60008301846112c6565b92915050565b600060208201905061171760008301846112b7565b92915050565b600060408201905061173260008301856112c6565b61173f60208301846116c3565b9392505050565b600060208201905061175b60008301846112d5565b92915050565b6000602082019050818103600083015261177b81846112e4565b905092915050565b6000606082019050818103600083015261179d818661131d565b90506117ac60208301856116c3565b6117b960408301846116c3565b949350505050565b600060208201905081810360008301526117da8161139d565b9050919050565b600060208201905081810360008301526117fa816113dd565b9050919050565b6000602082019050818103600083015261181a81611443565b9050919050565b6000602082019050818103600083015261183a81611483565b9050919050565b6000602082019050818103600083015261185a816114c3565b9050919050565b6000602082019050818103600083015261187a81611529565b9050919050565b6000602082019050818103600083015261189a81611569565b9050919050565b600060208201905081810360008301526118ba816115a9565b9050919050565b600060208201905081810360008301526118da81611603565b9050919050565b600060208201905081810360008301526118fa81611643565b9050919050565b6000602082019050818103600083015261191a81611683565b9050919050565b600060208201905061193660008301846116c3565b92915050565b6000604051905081810181811067ffffffffffffffff8211171561196357611962611bfe565b5b8060405250919050565b600067ffffffffffffffff82111561198857611987611bfe565b5b601f19601f8301169050602081019050919050565b60008190508160005260206000209050919050565b600081519050919050565b600081905092915050565b600082825260208201905092915050565b60006119e482611ad9565b91506119ef83611ad9565b9250827fffffffffffffffffffffffffffffffffffffffffffffffffffffffffffffffff03821115611a2457611a23611ba0565b5b828201905092915050565b6000611a3a82611ad9565b9150611a4583611ad9565b9250817fffffffffffffffffffffffffffffffffffffffffffffffffffffffffffffffff0483118215151615611a7e57611a7d611ba0565b5b828202905092915050565b6000611a9482611ab9565b9050919050565b6000611aa682611ab9565b9050919050565b60008115159050919050565b600073ffffffffffffffffffffffffffffffffffffffff82169050919050565b6000819050919050565b82818337600083830152505050565b60005b83811015611b10578082015181840152602081019050611af5565b83811115611b1f576000848401525b50505050565b60006002820490506001821680611b3d57607f821691505b60208210811415611b5157611b50611bcf565b5b50919050565b6000611b6282611ad9565b91507fffffffffffffffffffffffffffffffffffffffffffffffffffffffffffffffff821415611b9557611b94611ba0565b5b600182019050919050565b7f4e487b7100000000000000000000000000000000000000000000000000000000600052601160045260246000fd5b7f4e487b7100000000000000000000000000000000000000000000000000000000600052602260045260246000fd5b7f4e487b7100000000000000000000000000000000000000000000000000000000600052604160045260246000fd5b6000601f19601f8301169050919050565b611c4781611a89565b8114611c5257600080fd5b50565b611c5e81611ad9565b8114611c6957600080fd5b5056fea2646970667358221220a34e541b4192aba6507ff47b727403db16a57ff82b242479cffa51b190b3d19b64736f6c63430008000033",
  "immutableReferences": {},
  "source": "// SPDX-License-Identifier: MIT\r\npragma solidity ^0.8.0;\r\n\r\ncontract Auction {\r\n    address payable public owner;\r\n    string public itemName;\r\n    uint256 public minBid;\r\n    uint256 public endTime;\r\n    bool public active;\r\n    address public highestBidder;\r\n    uint256 public highestBid;\r\n    mapping(address => uint256) public bids;\r\n    address[] private bidders;\r\n    \r\n    event AuctionStarted(string itemName, uint256 minBid, uint256 endTime);\r\n    event NewBid(address indexed bidder, uint256 amount);\r\n    event AuctionEnded(address winner, uint256 amount);\r\n    event AuctionCancelled();\r\n    \r\n    modifier onlyOwner() {\r\n        require(msg.sender == owner, \"Only owner can call this\");\r\n        _;\r\n    }\r\n    \r\n    constructor() {\r\n        owner = payable(msg.sender);\r\n    }\r\n    \r\n    //   .     .\r\n    function startAuction(string memory _itemName, uint256 _minBid, uint256 _duration) external onlyOwner {\r\n        require(!active, \"Finish current auction first!\");\r\n        require(address(this).balance == 0, \"Contract should not hold ETH!\");\r\n        \r\n        itemName = _itemName;\r\n        minBid = _minBid;\r\n        endTime = block.timestamp + (_duration * 1 days);\r\n        active = true;\r\n        highestBidder = address(0);\r\n        highestBid = 0;\r\n        \r\n        //     \r\n        for (uint256 i = 0; i < bidders.length; i++) {\r\n            bids[bidders[i]] = 0;\r\n        }\r\n        delete bidders;\r\n        \r\n        emit AuctionStarted(itemName, minBid, endTime);\r\n    }\r\n    \r\n    //   .\r\n    function placeBid() external payable {\r\n        require(active, \"No active auction\");\r\n        require(block.timestamp < endTime, \"Auction ended\");\r\n        require(msg.value > highestBid && msg.value >= minBid, \"Bid too low\");\r\n        \r\n        //     \r\n        if (highestBidder != address(0)) {\r\n            (bool refundSuccess, ) = payable(highestBidder).call{value: highestBid}(\"\");\r\n            require(refundSuccess, \"Refund failed\");\r\n        }\r\n        \r\n        highestBidder = msg.sender;\r\n        highestBid = msg.value;\r\n        bids[msg.sender] = msg.value;\r\n        bidders.push(msg.sender);\r\n        \r\n        emit NewBid(msg.sender, msg.value);\r\n    }\r\n    \r\n    //   .   (  )  .\r\n    function endAuction() external onlyOwner {\r\n        require(active, \"No active auction\");\r\n        //   ,    \r\n        active = false;\r\n        \r\n        if (highestBidder != address(0)) {\r\n            uint256 payout = highestBid;\r\n            // ,       \r\n            require(address(this).balance >= payout, \"Insufficient contract balance\");\r\n            \r\n            //       \r\n            address winner = highestBidder;\r\n            highestBid = 0;\r\n            highestBidder = address(0);\r\n            \r\n            (bool success, ) = owner.call{value: payout}(\"\");\r\n            require(success, \"ETH Transfer failed\");\r\n            \r\n            emit AuctionEnded(winner, payout);\r\n        }\r\n    }\r\n    \r\n    //  ,    .\r\n    function cancelAuction() external onlyOwner {\r\n        require(active, \"No active auction\");\r\n        \r\n        active = false;\r\n        \r\n        for (uint256 i = 0; i < bidders.length; i++) {\r\n            address user = bidders[i];\r\n            if (bids[user] > 0) {\r\n                (bool refundSuccess, ) = payable(user).call{value: bids[user]}(\"\");\r\n                require(refundSuccess, \"Refund failed\");\r\n                bids[user] = 0;\r\n            }\r\n        }\r\n        \r\n        highestBidder = address(0);\r\n        highestBid = 0;\r\n        delete bidders;\r\n        \r\n        emit AuctionCancelled();\r\n    }\r\n    \r\n    //    ETH .\r\n    receive() external payable {\r\n        revert(\"This contract does not accept direct ETH payments!\");\r\n    }\r\n    \r\n    fallback() external payable {\r\n        revert(\"Fallback: ETH transfer not allowed!\");\r\n    }\r\n}\r\n",
  "sourcePath": "D:\\STUDY\\Auction\\contracts\\Auction.sol",
  "compiler": {
    "name": "solc",
    "version": "0.8.0+commit.c7dfd78e.Emscripten.clang"
  },
  "schemaVersion": "3.4.13",
  "updatedAt": "2025-02-26T14:13:36.779Z",
  "networkType": "ethereum",
  "devdoc": {
    "kind": "dev",
    "methods": {},
    "version": 1
  },
  "userdoc": {
    "kind": "user",
    "methods": {},
    "version": 1
  }
}